{
  "contractName": "PublicDebt",
  "abi": [
    {
      "inputs": [
        {
          "internalType": "string",
          "name": "name",
          "type": "string"
        },
        {
          "internalType": "string",
          "name": "symbol",
          "type": "string"
        },
        {
          "internalType": "address",
          "name": "_usdt",
          "type": "address"
        },
        {
          "internalType": "uint256",
          "name": "_debtAmount",
          "type": "uint256"
        },
        {
          "internalType": "uint256",
          "name": "_interestRate",
          "type": "uint256"
        },
        {
          "internalType": "uint256",
          "name": "_duration",
          "type": "uint256"
        }
      ],
      "stateMutability": "nonpayable",
      "type": "constructor"
    },
    {
      "anonymous": false,
      "inputs": [
        {
          "indexed": true,
          "internalType": "address",
          "name": "owner",
          "type": "address"
        },
        {
          "indexed": true,
          "internalType": "address",
          "name": "spender",
          "type": "address"
        },
        {
          "indexed": false,
          "internalType": "uint256",
          "name": "value",
          "type": "uint256"
        }
      ],
      "name": "Approval",
      "type": "event"
    },
    {
      "anonymous": false,
      "inputs": [
        {
          "indexed": true,
          "internalType": "address",
          "name": "investor",
          "type": "address"
        },
        {
          "indexed": false,
          "internalType": "uint256",
          "name": "amount",
          "type": "uint256"
        }
      ],
      "name": "CapitalRedeemed",
      "type": "event"
    },
    {
      "anonymous": false,
      "inputs": [
        {
          "indexed": true,
          "internalType": "address",
          "name": "investor",
          "type": "address"
        },
        {
          "indexed": false,
          "internalType": "uint256",
          "name": "amount",
          "type": "uint256"
        }
      ],
      "name": "InterestClaimed",
      "type": "event"
    },
    {
      "anonymous": false,
      "inputs": [
        {
          "indexed": true,
          "internalType": "address",
          "name": "previousOwner",
          "type": "address"
        },
        {
          "indexed": true,
          "internalType": "address",
          "name": "newOwner",
          "type": "address"
        }
      ],
      "name": "OwnershipTransferred",
      "type": "event"
    },
    {
      "anonymous": false,
      "inputs": [
        {
          "indexed": true,
          "internalType": "address",
          "name": "buyer",
          "type": "address"
        },
        {
          "indexed": false,
          "internalType": "uint256",
          "name": "amount",
          "type": "uint256"
        }
      ],
      "name": "TokensPurchased",
      "type": "event"
    },
    {
      "anonymous": false,
      "inputs": [
        {
          "indexed": true,
          "internalType": "address",
          "name": "from",
          "type": "address"
        },
        {
          "indexed": true,
          "internalType": "address",
          "name": "to",
          "type": "address"
        },
        {
          "indexed": false,
          "internalType": "uint256",
          "name": "value",
          "type": "uint256"
        }
      ],
      "name": "Transfer",
      "type": "event"
    },
    {
      "inputs": [
        {
          "internalType": "address",
          "name": "owner",
          "type": "address"
        },
        {
          "internalType": "address",
          "name": "spender",
          "type": "address"
        }
      ],
      "name": "allowance",
      "outputs": [
        {
          "internalType": "uint256",
          "name": "",
          "type": "uint256"
        }
      ],
      "stateMutability": "view",
      "type": "function",
      "constant": true
    },
    {
      "inputs": [
        {
          "internalType": "address",
          "name": "spender",
          "type": "address"
        },
        {
          "internalType": "uint256",
          "name": "amount",
          "type": "uint256"
        }
      ],
      "name": "approve",
      "outputs": [
        {
          "internalType": "bool",
          "name": "",
          "type": "bool"
        }
      ],
      "stateMutability": "nonpayable",
      "type": "function"
    },
    {
      "inputs": [
        {
          "internalType": "address",
          "name": "account",
          "type": "address"
        }
      ],
      "name": "balanceOf",
      "outputs": [
        {
          "internalType": "uint256",
          "name": "",
          "type": "uint256"
        }
      ],
      "stateMutability": "view",
      "type": "function",
      "constant": true
    },
    {
      "inputs": [],
      "name": "decimals",
      "outputs": [
        {
          "internalType": "uint8",
          "name": "",
          "type": "uint8"
        }
      ],
      "stateMutability": "view",
      "type": "function",
      "constant": true
    },
    {
      "inputs": [
        {
          "internalType": "address",
          "name": "spender",
          "type": "address"
        },
        {
          "internalType": "uint256",
          "name": "subtractedValue",
          "type": "uint256"
        }
      ],
      "name": "decreaseAllowance",
      "outputs": [
        {
          "internalType": "bool",
          "name": "",
          "type": "bool"
        }
      ],
      "stateMutability": "nonpayable",
      "type": "function"
    },
    {
      "inputs": [],
      "name": "duration",
      "outputs": [
        {
          "internalType": "uint256",
          "name": "",
          "type": "uint256"
        }
      ],
      "stateMutability": "view",
      "type": "function",
      "constant": true
    },
    {
      "inputs": [],
      "name": "endTimestamp",
      "outputs": [
        {
          "internalType": "uint256",
          "name": "",
          "type": "uint256"
        }
      ],
      "stateMutability": "view",
      "type": "function",
      "constant": true
    },
    {
      "inputs": [
        {
          "internalType": "address",
          "name": "spender",
          "type": "address"
        },
        {
          "internalType": "uint256",
          "name": "addedValue",
          "type": "uint256"
        }
      ],
      "name": "increaseAllowance",
      "outputs": [
        {
          "internalType": "bool",
          "name": "",
          "type": "bool"
        }
      ],
      "stateMutability": "nonpayable",
      "type": "function"
    },
    {
      "inputs": [],
      "name": "interestRate",
      "outputs": [
        {
          "internalType": "uint256",
          "name": "",
          "type": "uint256"
        }
      ],
      "stateMutability": "view",
      "type": "function",
      "constant": true
    },
    {
      "inputs": [
        {
          "internalType": "uint256",
          "name": "",
          "type": "uint256"
        }
      ],
      "name": "investors",
      "outputs": [
        {
          "internalType": "address",
          "name": "",
          "type": "address"
        }
      ],
      "stateMutability": "view",
      "type": "function",
      "constant": true
    },
    {
      "inputs": [
        {
          "internalType": "address",
          "name": "",
          "type": "address"
        }
      ],
      "name": "lastClaimedTime",
      "outputs": [
        {
          "internalType": "uint256",
          "name": "",
          "type": "uint256"
        }
      ],
      "stateMutability": "view",
      "type": "function",
      "constant": true
    },
    {
      "inputs": [],
      "name": "name",
      "outputs": [
        {
          "internalType": "string",
          "name": "",
          "type": "string"
        }
      ],
      "stateMutability": "view",
      "type": "function",
      "constant": true
    },
    {
      "inputs": [],
      "name": "owner",
      "outputs": [
        {
          "internalType": "address",
          "name": "",
          "type": "address"
        }
      ],
      "stateMutability": "view",
      "type": "function",
      "constant": true
    },
    {
      "inputs": [],
      "name": "renounceOwnership",
      "outputs": [],
      "stateMutability": "nonpayable",
      "type": "function"
    },
    {
      "inputs": [],
      "name": "symbol",
      "outputs": [
        {
          "internalType": "string",
          "name": "",
          "type": "string"
        }
      ],
      "stateMutability": "view",
      "type": "function",
      "constant": true
    },
    {
      "inputs": [],
      "name": "tokenPrice",
      "outputs": [
        {
          "internalType": "uint256",
          "name": "",
          "type": "uint256"
        }
      ],
      "stateMutability": "view",
      "type": "function",
      "constant": true
    },
    {
      "inputs": [],
      "name": "totalSupply",
      "outputs": [
        {
          "internalType": "uint256",
          "name": "",
          "type": "uint256"
        }
      ],
      "stateMutability": "view",
      "type": "function",
      "constant": true
    },
    {
      "inputs": [
        {
          "internalType": "address",
          "name": "to",
          "type": "address"
        },
        {
          "internalType": "uint256",
          "name": "amount",
          "type": "uint256"
        }
      ],
      "name": "transfer",
      "outputs": [
        {
          "internalType": "bool",
          "name": "",
          "type": "bool"
        }
      ],
      "stateMutability": "nonpayable",
      "type": "function"
    },
    {
      "inputs": [
        {
          "internalType": "address",
          "name": "from",
          "type": "address"
        },
        {
          "internalType": "address",
          "name": "to",
          "type": "address"
        },
        {
          "internalType": "uint256",
          "name": "amount",
          "type": "uint256"
        }
      ],
      "name": "transferFrom",
      "outputs": [
        {
          "internalType": "bool",
          "name": "",
          "type": "bool"
        }
      ],
      "stateMutability": "nonpayable",
      "type": "function"
    },
    {
      "inputs": [
        {
          "internalType": "address",
          "name": "newOwner",
          "type": "address"
        }
      ],
      "name": "transferOwnership",
      "outputs": [],
      "stateMutability": "nonpayable",
      "type": "function"
    },
    {
      "inputs": [],
      "name": "usdt",
      "outputs": [
        {
          "internalType": "contract IERC20",
          "name": "",
          "type": "address"
        }
      ],
      "stateMutability": "view",
      "type": "function",
      "constant": true
    },
    {
      "inputs": [
        {
          "internalType": "uint256",
          "name": "amount",
          "type": "uint256"
        }
      ],
      "name": "buyTokens",
      "outputs": [],
      "stateMutability": "nonpayable",
      "type": "function"
    },
    {
      "inputs": [],
      "name": "claimInterest",
      "outputs": [],
      "stateMutability": "nonpayable",
      "type": "function"
    },
    {
      "inputs": [
        {
          "internalType": "address",
          "name": "investor",
          "type": "address"
        }
      ],
      "name": "calculateInterest",
      "outputs": [
        {
          "internalType": "uint256",
          "name": "",
          "type": "uint256"
        }
      ],
      "stateMutability": "view",
      "type": "function",
      "constant": true
    },
    {
      "inputs": [],
      "name": "redeemCapital",
      "outputs": [],
      "stateMutability": "nonpayable",
      "type": "function"
    },
    {
      "inputs": [
        {
          "internalType": "address",
          "name": "account",
          "type": "address"
        }
      ],
      "name": "getBalance",
      "outputs": [
        {
          "internalType": "uint256",
          "name": "",
          "type": "uint256"
        }
      ],
      "stateMutability": "view",
      "type": "function",
      "constant": true
    },
    {
      "inputs": [],
      "name": "getUSDTBalance",
      "outputs": [
        {
          "internalType": "uint256",
          "name": "",
          "type": "uint256"
        }
      ],
      "stateMutability": "view",
      "type": "function",
      "constant": true
    },
    {
      "inputs": [],
      "name": "remainingTime",
      "outputs": [
        {
          "internalType": "uint256",
          "name": "",
          "type": "uint256"
        }
      ],
      "stateMutability": "view",
      "type": "function",
      "constant": true
    }
  ],
  "bytecode": "0x6101006040523480156200001257600080fd5b5060405162003f5638038062003f56833981810160405281019062000038919062000594565b858581600390805190602001906200005292919062000444565b5080600490805190602001906200006b92919062000444565b5050506200008e62000082620001f360201b60201c565b620001fb60201b60201c565b600160068190555060008311620000dc576040517f08c379a0000000000000000000000000000000000000000000000000000000008152600401620000d3906200072b565b60405180910390fd5b6000821162000122576040517f08c379a0000000000000000000000000000000000000000000000000000000008152600401620001199062000709565b60405180910390fd5b6000811162000168576040517f08c379a00000000000000000000000000000000000000000000000000000000081526004016200015f906200074d565b60405180910390fd5b8373ffffffffffffffffffffffffffffffffffffffff1660808173ffffffffffffffffffffffffffffffffffffffff1660601b815250508160a081815250508060c081815250508042620001bd91906200081e565b60e08181525050620001e7306305f5e10085620001db91906200087b565b620002c160201b60201c565b50505050505062000baa565b600033905090565b6000600560009054906101000a900473ffffffffffffffffffffffffffffffffffffffff16905081600560006101000a81548173ffffffffffffffffffffffffffffffffffffffff021916908373ffffffffffffffffffffffffffffffffffffffff1602179055508173ffffffffffffffffffffffffffffffffffffffff168173ffffffffffffffffffffffffffffffffffffffff167f8be0079c531659141344cd1fd0a4f28419497f9722a3daafe3b4186f6b6457e060405160405180910390a35050565b600073ffffffffffffffffffffffffffffffffffffffff168273ffffffffffffffffffffffffffffffffffffffff16141562000334576040517f08c379a00000000000000000000000000000000000000000000000000000000081526004016200032b906200076f565b60405180910390fd5b62000348600083836200043a60201b60201c565b80600260008282546200035c91906200081e565b92505081905550806000808473ffffffffffffffffffffffffffffffffffffffff1673ffffffffffffffffffffffffffffffffffffffff1681526020019081526020016000206000828254620003b391906200081e565b925050819055508173ffffffffffffffffffffffffffffffffffffffff16600073ffffffffffffffffffffffffffffffffffffffff167fddf252ad1be2c89b69c2b068fc378daa952ba7f163c4a11628f55a4df523b3ef836040516200041a919062000791565b60405180910390a362000436600083836200043f60201b60201c565b5050565b505050565b505050565b828054620004529062000927565b90600052602060002090601f016020900481019282620004765760008555620004c2565b82601f106200049157805160ff1916838001178555620004c2565b82800160010185558215620004c2579182015b82811115620004c1578251825591602001919060010190620004a4565b5b509050620004d19190620004d5565b5090565b5b80821115620004f0576000816000905550600101620004d6565b5090565b60006200050b6200050584620007d7565b620007ae565b9050828152602081018484840111156200052457600080fd5b62000531848285620008f1565b509392505050565b6000815190506200054a8162000b76565b92915050565b600082601f8301126200056257600080fd5b815162000574848260208601620004f4565b91505092915050565b6000815190506200058e8162000b90565b92915050565b60008060008060008060c08789031215620005ae57600080fd5b600087015167ffffffffffffffff811115620005c957600080fd5b620005d789828a0162000550565b965050602087015167ffffffffffffffff811115620005f557600080fd5b6200060389828a0162000550565b95505060406200061689828a0162000539565b94505060606200062989828a016200057d565b93505060806200063c89828a016200057d565b92505060a06200064f89828a016200057d565b9150509295509295509295565b60006200066b6027836200080d565b9150620006788262000a60565b604082019050919050565b6000620006926025836200080d565b91506200069f8262000aaf565b604082019050919050565b6000620006b96022836200080d565b9150620006c68262000afe565b604082019050919050565b6000620006e0601f836200080d565b9150620006ed8262000b4d565b602082019050919050565b6200070381620008e7565b82525050565b6000602082019050818103600083015262000724816200065c565b9050919050565b60006020820190508181036000830152620007468162000683565b9050919050565b600060208201905081810360008301526200076881620006aa565b9050919050565b600060208201905081810360008301526200078a81620006d1565b9050919050565b6000602082019050620007a86000830184620006f8565b92915050565b6000620007ba620007cd565b9050620007c882826200095d565b919050565b6000604051905090565b600067ffffffffffffffff821115620007f557620007f462000a20565b5b620008008262000a4f565b9050602081019050919050565b600082825260208201905092915050565b60006200082b82620008e7565b91506200083883620008e7565b9250827fffffffffffffffffffffffffffffffffffffffffffffffffffffffffffffffff0382111562000870576200086f62000993565b5b828201905092915050565b60006200088882620008e7565b91506200089583620008e7565b925082620008a857620008a7620009c2565b5b828204905092915050565b6000620008c082620008c7565b9050919050565b600073ffffffffffffffffffffffffffffffffffffffff82169050919050565b6000819050919050565b60005b8381101562000911578082015181840152602081019050620008f4565b8381111562000921576000848401525b50505050565b600060028204905060018216806200094057607f821691505b60208210811415620009575762000956620009f1565b5b50919050565b620009688262000a4f565b810181811067ffffffffffffffff821117156200098a576200098962000a20565b5b80604052505050565b7f4e487b7100000000000000000000000000000000000000000000000000000000600052601160045260246000fd5b7f4e487b7100000000000000000000000000000000000000000000000000000000600052601260045260246000fd5b7f4e487b7100000000000000000000000000000000000000000000000000000000600052602260045260246000fd5b7f4e487b7100000000000000000000000000000000000000000000000000000000600052604160045260246000fd5b6000601f19601f8301169050919050565b7f496e7465726573742072617465206d757374206265206772656174657220746860008201527f616e207a65726f00000000000000000000000000000000000000000000000000602082015250565b7f4465627420616d6f756e74206d7573742062652067726561746572207468616e60008201527f207a65726f000000000000000000000000000000000000000000000000000000602082015250565b7f4475726174696f6e206d7573742062652067726561746572207468616e207a6560008201527f726f000000000000000000000000000000000000000000000000000000000000602082015250565b7f45524332303a206d696e7420746f20746865207a65726f206164647265737300600082015250565b62000b8181620008b3565b811462000b8d57600080fd5b50565b62000b9b81620008e7565b811462000ba757600080fd5b50565b60805160601c60a05160c05160e05161332962000c2d60003960008181610e6601528181611336015261138001526000818161064e01526114960152600081816110a601526114ba0152600081816106ab015281816107bf01528181610904015281816109ef01528181610b3101528181610f37015261119401526133296000f3fe608060405234801561001057600080fd5b50600436106101c45760003560e01c80637c3a00fd116100f9578063a9059cbb11610097578063e11932cf11610071578063e11932cf146104eb578063f2fde38b1461051b578063f3f91fa014610537578063f8b2cb4f14610567576101c4565b8063a9059cbb1461046d578063acc4bd081461049d578063dd62ed3e146104bb576101c4565b806395d89b41116100d357806395d89b41146103e35780639785fac814610401578063a457c2d71461041f578063a85adeab1461044f576101c4565b80637c3a00fd146103895780637ff9b596146103a75780638da5cb5b146103c5576101c4565b806335981fd8116101665780633feb5f2b116101405780633feb5f2b146103155780634cf91e701461034557806370a082311461034f578063715018a61461037f576101c4565b806335981fd8146102bf5780633610724e146102c957806339509351146102e5576101c4565b806318160ddd116101a257806318160ddd1461023557806323b872dd146102535780632f48ab7d14610283578063313ce567146102a1576101c4565b806306fdde03146101c9578063095ea7b3146101e75780630fb5a6b414610217575b600080fd5b6101d1610597565b6040516101de91906127ab565b60405180910390f35b61020160048036038101906101fc919061224c565b610629565b60405161020e9190612775565b60405180910390f35b61021f61064c565b60405161022c9190612a8d565b60405180910390f35b61023d610670565b60405161024a9190612a8d565b60405180910390f35b61026d600480360381019061026891906121fd565b61067a565b60405161027a9190612775565b60405180910390f35b61028b6106a9565b6040516102989190612790565b60405180910390f35b6102a96106cd565b6040516102b69190612aa8565b60405180910390f35b6102c76106d6565b005b6102e360048036038101906102de91906122b1565b61085c565b005b6102ff60048036038101906102fa919061224c565b610d2d565b60405161030c9190612775565b60405180910390f35b61032f600480360381019061032a91906122b1565b610dd7565b60405161033c91906126d1565b60405180910390f35b61034d610e16565b005b61036960048036038101906103649190612198565b610fd4565b6040516103769190612a8d565b60405180910390f35b61038761101c565b005b6103916110a4565b60405161039e9190612a8d565b60405180910390f35b6103af6110c8565b6040516103bc9190612a8d565b60405180910390f35b6103cd6110d0565b6040516103da91906126d1565b60405180910390f35b6103eb6110fa565b6040516103f891906127ab565b60405180910390f35b61040961118c565b6040516104169190612a8d565b60405180910390f35b6104396004803603810190610434919061224c565b61124a565b6040516104469190612775565b60405180910390f35b610457611334565b6040516104649190612a8d565b60405180910390f35b6104876004803603810190610482919061224c565b611358565b6040516104949190612775565b60405180910390f35b6104a561137b565b6040516104b29190612a8d565b60405180910390f35b6104d560048036038101906104d091906121c1565b6113ae565b6040516104e29190612a8d565b60405180910390f35b61050560048036038101906105009190612198565b611435565b6040516105129190612a8d565b60405180910390f35b61053560048036038101906105309190612198565b61150f565b005b610551600480360381019061054c9190612198565b611607565b60405161055e9190612a8d565b60405180910390f35b610581600480360381019061057c9190612198565b61161f565b60405161058e9190612a8d565b60405180910390f35b6060600380546105a690612cb6565b80601f01602080910402602001604051908101604052809291908181526020018280546105d290612cb6565b801561061f5780601f106105f45761010080835404028352916020019161061f565b820191906000526020600020905b81548152906001019060200180831161060257829003601f168201915b5050505050905090565b600080610634611631565b9050610641818585611639565b600191505092915050565b7f000000000000000000000000000000000000000000000000000000000000000081565b6000600254905090565b600080610685611631565b9050610692858285611804565b61069d858585611890565b60019150509392505050565b7f000000000000000000000000000000000000000000000000000000000000000081565b60006012905090565b6002600654141561071c576040517f08c379a000000000000000000000000000000000000000000000000000000000815260040161071390612a4d565b60405180910390fd5b6002600681905550600061072f33611435565b905060008111610774576040517f08c379a000000000000000000000000000000000000000000000000000000000815260040161076b9061280d565b60405180910390fd5b42600960003373ffffffffffffffffffffffffffffffffffffffff1673ffffffffffffffffffffffffffffffffffffffff1681526020019081526020016000208190555061080333827f000000000000000000000000000000000000000000000000000000000000000073ffffffffffffffffffffffffffffffffffffffff16611b119092919063ffffffff16565b3373ffffffffffffffffffffffffffffffffffffffff167ff9984c8173c4b4ff9cc454f76ed19c053f4490ccb224fd9ddffeb4ef4bea3530826040516108499190612a8d565b60405180910390a2506001600681905550565b600260065414156108a2576040517f08c379a000000000000000000000000000000000000000000000000000000000815260040161089990612a4d565b60405180910390fd5b6002600681905550600081116108ed576040517f08c379a00000000000000000000000000000000000000000000000000000000081526004016108e49061286d565b60405180910390fd5b60006305f5e100826108ff9190612b7c565b9050807f000000000000000000000000000000000000000000000000000000000000000073ffffffffffffffffffffffffffffffffffffffff166370a08231336040518263ffffffff1660e01b815260040161095b91906126d1565b60206040518083038186803b15801561097357600080fd5b505afa158015610987573d6000803e3d6000fd5b505050506040513d601f19601f820116820180604052508101906109ab91906122da565b10156109ec576040517f08c379a00000000000000000000000000000000000000000000000000000000081526004016109e3906128ad565b60405180910390fd5b807f000000000000000000000000000000000000000000000000000000000000000073ffffffffffffffffffffffffffffffffffffffff1663dd62ed3e33306040518363ffffffff1660e01b8152600401610a489291906126ec565b60206040518083038186803b158015610a6057600080fd5b505afa158015610a74573d6000803e3d6000fd5b505050506040513d601f19601f82011682018060405250810190610a9891906122da565b1015610ad9576040517f08c379a0000000000000000000000000000000000000000000000000000000008152600401610ad0906128ed565b60405180910390fd5b6000610ae43061161f565b905080831115610b29576040517f08c379a0000000000000000000000000000000000000000000000000000000008152600401610b209061292d565b60405180910390fd5b610b763330847f000000000000000000000000000000000000000000000000000000000000000073ffffffffffffffffffffffffffffffffffffffff16611b97909392919063ffffffff16565b610b81303385611890565b600860003373ffffffffffffffffffffffffffffffffffffffff1673ffffffffffffffffffffffffffffffffffffffff16815260200190815260200160002060009054906101000a900460ff16610cd2576007339080600181540180825580915050600190039060005260206000200160009091909190916101000a81548173ffffffffffffffffffffffffffffffffffffffff021916908373ffffffffffffffffffffffffffffffffffffffff1602179055506001600860003373ffffffffffffffffffffffffffffffffffffffff1673ffffffffffffffffffffffffffffffffffffffff16815260200190815260200160002060006101000a81548160ff02191690831515021790555042600960003373ffffffffffffffffffffffffffffffffffffffff1673ffffffffffffffffffffffffffffffffffffffff168152602001908152602001600020819055505b3373ffffffffffffffffffffffffffffffffffffffff167f8f28852646c20cc973d3a8218f7eefed58c25c909f78f0265af4818c3d4dc27184604051610d189190612a8d565b60405180910390a25050600160068190555050565b600080610d38611631565b9050610dcc818585600160008673ffffffffffffffffffffffffffffffffffffffff1673ffffffffffffffffffffffffffffffffffffffff16815260200190815260200160002060008973ffffffffffffffffffffffffffffffffffffffff1673ffffffffffffffffffffffffffffffffffffffff16815260200190815260200160002054610dc79190612af5565b611639565b600191505092915050565b60078181548110610de757600080fd5b906000526020600020016000915054906101000a900473ffffffffffffffffffffffffffffffffffffffff1681565b60026006541415610e5c576040517f08c379a0000000000000000000000000000000000000000000000000000000008152600401610e5390612a4d565b60405180910390fd5b60026006819055507f0000000000000000000000000000000000000000000000000000000000000000421015610ec7576040517f08c379a0000000000000000000000000000000000000000000000000000000008152600401610ebe90612a0d565b60405180910390fd5b6000610ed233610fd4565b905060008111610f17576040517f08c379a0000000000000000000000000000000000000000000000000000000008152600401610f0e9061296d565b60405180910390fd5b610f213382611c20565b610f7b336305f5e10083610f359190612b7c565b7f000000000000000000000000000000000000000000000000000000000000000073ffffffffffffffffffffffffffffffffffffffff16611b119092919063ffffffff16565b3373ffffffffffffffffffffffffffffffffffffffff167fdf30367f4df667470ab3b34e36aafb608af1ca8dbc1180030d5da53ef3615ba082604051610fc19190612a8d565b60405180910390a2506001600681905550565b60008060008373ffffffffffffffffffffffffffffffffffffffff1673ffffffffffffffffffffffffffffffffffffffff168152602001908152602001600020549050919050565b611024611631565b73ffffffffffffffffffffffffffffffffffffffff166110426110d0565b73ffffffffffffffffffffffffffffffffffffffff1614611098576040517f08c379a000000000000000000000000000000000000000000000000000000000815260040161108f9061294d565b60405180910390fd5b6110a26000611df7565b565b7f000000000000000000000000000000000000000000000000000000000000000081565b6305f5e10081565b6000600560009054906101000a900473ffffffffffffffffffffffffffffffffffffffff16905090565b60606004805461110990612cb6565b80601f016020809104026020016040519081016040528092919081815260200182805461113590612cb6565b80156111825780601f1061115757610100808354040283529160200191611182565b820191906000526020600020905b81548152906001019060200180831161116557829003601f168201915b5050505050905090565b6000620f42407f000000000000000000000000000000000000000000000000000000000000000073ffffffffffffffffffffffffffffffffffffffff166370a08231306040518263ffffffff1660e01b81526004016111eb91906126d1565b60206040518083038186803b15801561120357600080fd5b505afa158015611217573d6000803e3d6000fd5b505050506040513d601f19601f8201168201806040525081019061123b91906122da565b6112459190612b4b565b905090565b600080611255611631565b90506000600160008373ffffffffffffffffffffffffffffffffffffffff1673ffffffffffffffffffffffffffffffffffffffff16815260200190815260200160002060008673ffffffffffffffffffffffffffffffffffffffff1673ffffffffffffffffffffffffffffffffffffffff1681526020019081526020016000205490508381101561131b576040517f08c379a000000000000000000000000000000000000000000000000000000000815260040161131290612a6d565b60405180910390fd5b6113288286868403611639565b60019250505092915050565b7f000000000000000000000000000000000000000000000000000000000000000081565b600080611363611631565b9050611370818585611890565b600191505092915050565b6000427f00000000000000000000000000000000000000000000000000000000000000006113a99190612bd6565b905090565b6000600160008473ffffffffffffffffffffffffffffffffffffffff1673ffffffffffffffffffffffffffffffffffffffff16815260200190815260200160002060008373ffffffffffffffffffffffffffffffffffffffff1673ffffffffffffffffffffffffffffffffffffffff16815260200190815260200160002054905092915050565b60008061144183610fd4565b90506000600960008573ffffffffffffffffffffffffffffffffffffffff1673ffffffffffffffffffffffffffffffffffffffff16815260200190815260200160002054426114909190612bd6565b905060007f00000000000000000000000000000000000000000000000000000000000000008260647f0000000000000000000000000000000000000000000000000000000000000000866114e49190612b7c565b6114ee9190612b4b565b6114f89190612b7c565b6115029190612b4b565b9050809350505050919050565b611517611631565b73ffffffffffffffffffffffffffffffffffffffff166115356110d0565b73ffffffffffffffffffffffffffffffffffffffff161461158b576040517f08c379a00000000000000000000000000000000000000000000000000000000081526004016115829061294d565b60405180910390fd5b600073ffffffffffffffffffffffffffffffffffffffff168173ffffffffffffffffffffffffffffffffffffffff1614156115fb576040517f08c379a00000000000000000000000000000000000000000000000000000000081526004016115f29061282d565b60405180910390fd5b61160481611df7565b50565b60096020528060005260406000206000915090505481565b600061162a82610fd4565b9050919050565b600033905090565b600073ffffffffffffffffffffffffffffffffffffffff168373ffffffffffffffffffffffffffffffffffffffff1614156116a9576040517f08c379a00000000000000000000000000000000000000000000000000000000081526004016116a0906129cd565b60405180910390fd5b600073ffffffffffffffffffffffffffffffffffffffff168273ffffffffffffffffffffffffffffffffffffffff161415611719576040517f08c379a00000000000000000000000000000000000000000000000000000000081526004016117109061284d565b60405180910390fd5b80600160008573ffffffffffffffffffffffffffffffffffffffff1673ffffffffffffffffffffffffffffffffffffffff16815260200190815260200160002060008473ffffffffffffffffffffffffffffffffffffffff1673ffffffffffffffffffffffffffffffffffffffff168152602001908152602001600020819055508173ffffffffffffffffffffffffffffffffffffffff168373ffffffffffffffffffffffffffffffffffffffff167f8c5be1e5ebec7d5bd14f71427d1e84f3dd0314c0f7b2291e5b200ac8c7c3b925836040516117f79190612a8d565b60405180910390a3505050565b600061181084846113ae565b90507fffffffffffffffffffffffffffffffffffffffffffffffffffffffffffffffff811461188a578181101561187c576040517f08c379a00000000000000000000000000000000000000000000000000000000081526004016118739061288d565b60405180910390fd5b6118898484848403611639565b5b50505050565b600073ffffffffffffffffffffffffffffffffffffffff168373ffffffffffffffffffffffffffffffffffffffff161415611900576040517f08c379a00000000000000000000000000000000000000000000000000000000081526004016118f7906129ad565b60405180910390fd5b600073ffffffffffffffffffffffffffffffffffffffff168273ffffffffffffffffffffffffffffffffffffffff161415611970576040517f08c379a0000000000000000000000000000000000000000000000000000000008152600401611967906127cd565b60405180910390fd5b61197b838383611ebd565b60008060008573ffffffffffffffffffffffffffffffffffffffff1673ffffffffffffffffffffffffffffffffffffffff16815260200190815260200160002054905081811015611a01576040517f08c379a00000000000000000000000000000000000000000000000000000000081526004016119f8906128cd565b60405180910390fd5b8181036000808673ffffffffffffffffffffffffffffffffffffffff1673ffffffffffffffffffffffffffffffffffffffff16815260200190815260200160002081905550816000808573ffffffffffffffffffffffffffffffffffffffff1673ffffffffffffffffffffffffffffffffffffffff1681526020019081526020016000206000828254611a949190612af5565b925050819055508273ffffffffffffffffffffffffffffffffffffffff168473ffffffffffffffffffffffffffffffffffffffff167fddf252ad1be2c89b69c2b068fc378daa952ba7f163c4a11628f55a4df523b3ef84604051611af89190612a8d565b60405180910390a3611b0b848484611ec2565b50505050565b611b928363a9059cbb60e01b8484604051602401611b3092919061274c565b604051602081830303815290604052907bffffffffffffffffffffffffffffffffffffffffffffffffffffffff19166020820180517bffffffffffffffffffffffffffffffffffffffffffffffffffffffff8381831617835250505050611ec7565b505050565b611c1a846323b872dd60e01b858585604051602401611bb893929190612715565b604051602081830303815290604052907bffffffffffffffffffffffffffffffffffffffffffffffffffffffff19166020820180517bffffffffffffffffffffffffffffffffffffffffffffffffffffffff8381831617835250505050611ec7565b50505050565b600073ffffffffffffffffffffffffffffffffffffffff168273ffffffffffffffffffffffffffffffffffffffff161415611c90576040517f08c379a0000000000000000000000000000000000000000000000000000000008152600401611c879061298d565b60405180910390fd5b611c9c82600083611ebd565b60008060008473ffffffffffffffffffffffffffffffffffffffff1673ffffffffffffffffffffffffffffffffffffffff16815260200190815260200160002054905081811015611d22576040517f08c379a0000000000000000000000000000000000000000000000000000000008152600401611d19906127ed565b60405180910390fd5b8181036000808573ffffffffffffffffffffffffffffffffffffffff1673ffffffffffffffffffffffffffffffffffffffff168152602001908152602001600020819055508160026000828254611d799190612bd6565b92505081905550600073ffffffffffffffffffffffffffffffffffffffff168373ffffffffffffffffffffffffffffffffffffffff167fddf252ad1be2c89b69c2b068fc378daa952ba7f163c4a11628f55a4df523b3ef84604051611dde9190612a8d565b60405180910390a3611df283600084611ec2565b505050565b6000600560009054906101000a900473ffffffffffffffffffffffffffffffffffffffff16905081600560006101000a81548173ffffffffffffffffffffffffffffffffffffffff021916908373ffffffffffffffffffffffffffffffffffffffff1602179055508173ffffffffffffffffffffffffffffffffffffffff168173ffffffffffffffffffffffffffffffffffffffff167f8be0079c531659141344cd1fd0a4f28419497f9722a3daafe3b4186f6b6457e060405160405180910390a35050565b505050565b505050565b6000611f29826040518060400160405280602081526020017f5361666545524332303a206c6f772d6c6576656c2063616c6c206661696c65648152508573ffffffffffffffffffffffffffffffffffffffff16611f8e9092919063ffffffff16565b9050600081511115611f895780806020019051810190611f499190612288565b611f88576040517f08c379a0000000000000000000000000000000000000000000000000000000008152600401611f7f90612a2d565b60405180910390fd5b5b505050565b6060611f9d8484600085611fa6565b90509392505050565b606082471015611feb576040517f08c379a0000000000000000000000000000000000000000000000000000000008152600401611fe29061290d565b60405180910390fd5b611ff4856120ba565b612033576040517f08c379a000000000000000000000000000000000000000000000000000000000815260040161202a906129ed565b60405180910390fd5b6000808673ffffffffffffffffffffffffffffffffffffffff16858760405161205c91906126ba565b60006040518083038185875af1925050503d8060008114612099576040519150601f19603f3d011682016040523d82523d6000602084013e61209e565b606091505b50915091506120ae8282866120dd565b92505050949350505050565b6000808273ffffffffffffffffffffffffffffffffffffffff163b119050919050565b606083156120ed5782905061213d565b6000835111156121005782518084602001fd5b816040517f08c379a000000000000000000000000000000000000000000000000000000000815260040161213491906127ab565b60405180910390fd5b9392505050565b600081359050612153816132ae565b92915050565b600081519050612168816132c5565b92915050565b60008135905061217d816132dc565b92915050565b600081519050612192816132dc565b92915050565b6000602082840312156121aa57600080fd5b60006121b884828501612144565b91505092915050565b600080604083850312156121d457600080fd5b60006121e285828601612144565b92505060206121f385828601612144565b9150509250929050565b60008060006060848603121561221257600080fd5b600061222086828701612144565b935050602061223186828701612144565b92505060406122428682870161216e565b9150509250925092565b6000806040838503121561225f57600080fd5b600061226d85828601612144565b925050602061227e8582860161216e565b9150509250929050565b60006020828403121561229a57600080fd5b60006122a884828501612159565b91505092915050565b6000602082840312156122c357600080fd5b60006122d18482850161216e565b91505092915050565b6000602082840312156122ec57600080fd5b60006122fa84828501612183565b91505092915050565b61230c81612c0a565b82525050565b61231b81612c1c565b82525050565b600061232c82612ac3565b6123368185612ad9565b9350612346818560208601612c83565b80840191505092915050565b61235b81612c5f565b82525050565b600061236c82612ace565b6123768185612ae4565b9350612386818560208601612c83565b61238f81612d75565b840191505092915050565b60006123a7602383612ae4565b91506123b282612d86565b604082019050919050565b60006123ca602283612ae4565b91506123d582612dd5565b604082019050919050565b60006123ed601483612ae4565b91506123f882612e24565b602082019050919050565b6000612410602683612ae4565b915061241b82612e4d565b604082019050919050565b6000612433602283612ae4565b915061243e82612e9c565b604082019050919050565b6000612456602083612ae4565b915061246182612eeb565b602082019050919050565b6000612479601d83612ae4565b915061248482612f14565b602082019050919050565b600061249c601983612ae4565b91506124a782612f3d565b602082019050919050565b60006124bf602683612ae4565b91506124ca82612f66565b604082019050919050565b60006124e2601683612ae4565b91506124ed82612fb5565b602082019050919050565b6000612505602683612ae4565b915061251082612fde565b604082019050919050565b6000612528601e83612ae4565b91506125338261302d565b602082019050919050565b600061254b602083612ae4565b915061255682613056565b602082019050919050565b600061256e601383612ae4565b91506125798261307f565b602082019050919050565b6000612591602183612ae4565b915061259c826130a8565b604082019050919050565b60006125b4602583612ae4565b91506125bf826130f7565b604082019050919050565b60006125d7602483612ae4565b91506125e282613146565b604082019050919050565b60006125fa601d83612ae4565b915061260582613195565b602082019050919050565b600061261d601883612ae4565b9150612628826131be565b602082019050919050565b6000612640602a83612ae4565b915061264b826131e7565b604082019050919050565b6000612663601f83612ae4565b915061266e82613236565b602082019050919050565b6000612686602583612ae4565b91506126918261325f565b604082019050919050565b6126a581612c48565b82525050565b6126b481612c52565b82525050565b60006126c68284612321565b915081905092915050565b60006020820190506126e66000830184612303565b92915050565b60006040820190506127016000830185612303565b61270e6020830184612303565b9392505050565b600060608201905061272a6000830186612303565b6127376020830185612303565b612744604083018461269c565b949350505050565b60006040820190506127616000830185612303565b61276e602083018461269c565b9392505050565b600060208201905061278a6000830184612312565b92915050565b60006020820190506127a56000830184612352565b92915050565b600060208201905081810360008301526127c58184612361565b905092915050565b600060208201905081810360008301526127e68161239a565b9050919050565b60006020820190508181036000830152612806816123bd565b9050919050565b60006020820190508181036000830152612826816123e0565b9050919050565b6000602082019050818103600083015261284681612403565b9050919050565b6000602082019050818103600083015261286681612426565b9050919050565b6000602082019050818103600083015261288681612449565b9050919050565b600060208201905081810360008301526128a68161246c565b9050919050565b600060208201905081810360008301526128c68161248f565b9050919050565b600060208201905081810360008301526128e6816124b2565b9050919050565b60006020820190508181036000830152612906816124d5565b9050919050565b60006020820190508181036000830152612926816124f8565b9050919050565b600060208201905081810360008301526129468161251b565b9050919050565b600060208201905081810360008301526129668161253e565b9050919050565b6000602082019050818103600083015261298681612561565b9050919050565b600060208201905081810360008301526129a681612584565b9050919050565b600060208201905081810360008301526129c6816125a7565b9050919050565b600060208201905081810360008301526129e6816125ca565b9050919050565b60006020820190508181036000830152612a06816125ed565b9050919050565b60006020820190508181036000830152612a2681612610565b9050919050565b60006020820190508181036000830152612a4681612633565b9050919050565b60006020820190508181036000830152612a6681612656565b9050919050565b60006020820190508181036000830152612a8681612679565b9050919050565b6000602082019050612aa2600083018461269c565b92915050565b6000602082019050612abd60008301846126ab565b92915050565b600081519050919050565b600081519050919050565b600081905092915050565b600082825260208201905092915050565b6000612b0082612c48565b9150612b0b83612c48565b9250827fffffffffffffffffffffffffffffffffffffffffffffffffffffffffffffffff03821115612b4057612b3f612ce8565b5b828201905092915050565b6000612b5682612c48565b9150612b6183612c48565b925082612b7157612b70612d17565b5b828204905092915050565b6000612b8782612c48565b9150612b9283612c48565b9250817fffffffffffffffffffffffffffffffffffffffffffffffffffffffffffffffff0483118215151615612bcb57612bca612ce8565b5b828202905092915050565b6000612be182612c48565b9150612bec83612c48565b925082821015612bff57612bfe612ce8565b5b828203905092915050565b6000612c1582612c28565b9050919050565b60008115159050919050565b600073ffffffffffffffffffffffffffffffffffffffff82169050919050565b6000819050919050565b600060ff82169050919050565b6000612c6a82612c71565b9050919050565b6000612c7c82612c28565b9050919050565b60005b83811015612ca1578082015181840152602081019050612c86565b83811115612cb0576000848401525b50505050565b60006002820490506001821680612cce57607f821691505b60208210811415612ce257612ce1612d46565b5b50919050565b7f4e487b7100000000000000000000000000000000000000000000000000000000600052601160045260246000fd5b7f4e487b7100000000000000000000000000000000000000000000000000000000600052601260045260246000fd5b7f4e487b7100000000000000000000000000000000000000000000000000000000600052602260045260246000fd5b6000601f19601f8301169050919050565b7f45524332303a207472616e7366657220746f20746865207a65726f206164647260008201527f6573730000000000000000000000000000000000000000000000000000000000602082015250565b7f45524332303a206275726e20616d6f756e7420657863656564732062616c616e60008201527f6365000000000000000000000000000000000000000000000000000000000000602082015250565b7f4e6f20696e74657265737420746f20636c61696d000000000000000000000000600082015250565b7f4f776e61626c653a206e6577206f776e657220697320746865207a65726f206160008201527f6464726573730000000000000000000000000000000000000000000000000000602082015250565b7f45524332303a20617070726f766520746f20746865207a65726f20616464726560008201527f7373000000000000000000000000000000000000000000000000000000000000602082015250565b7f416d6f756e74206d7573742062652067726561746572207468616e207a65726f600082015250565b7f45524332303a20696e73756666696369656e7420616c6c6f77616e6365000000600082015250565b7f496e73756666696369656e7420555344542062616c616e636500000000000000600082015250565b7f45524332303a207472616e7366657220616d6f756e742065786365656473206260008201527f616c616e63650000000000000000000000000000000000000000000000000000602082015250565b7f496e73756666696369656e7420616c6c6f77616e636500000000000000000000600082015250565b7f416464726573733a20696e73756666696369656e742062616c616e636520666f60008201527f722063616c6c0000000000000000000000000000000000000000000000000000602082015250565b7f427579206120736d616c6c6572206e756d626572206f6620746f6b656e730000600082015250565b7f4f776e61626c653a2063616c6c6572206973206e6f7420746865206f776e6572600082015250565b7f4e6f20746f6b656e7320746f2072656465656d00000000000000000000000000600082015250565b7f45524332303a206275726e2066726f6d20746865207a65726f2061646472657360008201527f7300000000000000000000000000000000000000000000000000000000000000602082015250565b7f45524332303a207472616e736665722066726f6d20746865207a65726f20616460008201527f6472657373000000000000000000000000000000000000000000000000000000602082015250565b7f45524332303a20617070726f76652066726f6d20746865207a65726f2061646460008201527f7265737300000000000000000000000000000000000000000000000000000000602082015250565b7f416464726573733a2063616c6c20746f206e6f6e2d636f6e7472616374000000600082015250565b7f436f6e747261637420706572696f64206e6f74206f7665720000000000000000600082015250565b7f5361666545524332303a204552433230206f7065726174696f6e20646964206e60008201527f6f74207375636365656400000000000000000000000000000000000000000000602082015250565b7f5265656e7472616e637947756172643a207265656e7472616e742063616c6c00600082015250565b7f45524332303a2064656372656173656420616c6c6f77616e63652062656c6f7760008201527f207a65726f000000000000000000000000000000000000000000000000000000602082015250565b6132b781612c0a565b81146132c257600080fd5b50565b6132ce81612c1c565b81146132d957600080fd5b50565b6132e581612c48565b81146132f057600080fd5b5056fea264697066735822122096772403eb83d968407c912a7e5d240063d1985d9b027900989c84c34e982d2e64736f6c63430008040033",
  "immutableReferences": {
    "1395": [
      {
        "length": 32,
        "start": 1707
      },
      {
        "length": 32,
        "start": 1983
      },
      {
        "length": 32,
        "start": 2308
      },
      {
        "length": 32,
        "start": 2543
      },
      {
        "length": 32,
        "start": 2865
      },
      {
        "length": 32,
        "start": 3895
      },
      {
        "length": 32,
        "start": 4500
      }
    ],
    "1404": [
      {
        "length": 32,
        "start": 4262
      },
      {
        "length": 32,
        "start": 5306
      }
    ],
    "1406": [
      {
        "length": 32,
        "start": 1614
      },
      {
        "length": 32,
        "start": 5270
      }
    ],
    "1408": [
      {
        "length": 32,
        "start": 3686
      },
      {
        "length": 32,
        "start": 4918
      },
      {
        "length": 32,
        "start": 4992
      }
    ]
  },
  "source": "// SPDX-License-Identifier: MIT\npragma solidity ^0.8.0;\n\nimport \"@openzeppelin/contracts/token/ERC20/ERC20.sol\";\nimport \"@openzeppelin/contracts/token/ERC20/utils/SafeERC20.sol\";\nimport \"@openzeppelin/contracts/access/Ownable.sol\";\nimport \"@openzeppelin/contracts/security/ReentrancyGuard.sol\";\n\ncontract PublicDebt is ERC20, Ownable, ReentrancyGuard {\n    using SafeERC20 for IERC20;\n\n    // USDT token contract\n    IERC20 public immutable usdt;\n    \n    // Price of each token in USDT (100 USDT with 6 decimals)\n    uint256 public constant tokenPrice = 100 * 10**6;\n    \n    // Annual interest rate in percentage\n    uint256 public immutable interestRate;\n    \n    // Duration of the debt in seconds\n    uint256 public immutable duration;\n    \n    // Timestamp when the debt ends\n    uint256 public immutable endTimestamp;\n\n    // List of investors\n    address[] public investors;\n    \n    // Mapping to check if an address is an investor\n    mapping(address => bool) private isInvestor;\n    \n    // Mapping to store the last time an investor claimed interest\n    mapping(address => uint256) public lastClaimedTime;\n\n\n    // Event emitted when tokens are purchased\n    event TokensPurchased(address indexed buyer, uint256 amount);\n    \n    // Event emitted when interest is claimed\n    event InterestClaimed(address indexed investor, uint256 amount);\n    \n    // Event emitted when capital is redeemed\n    event CapitalRedeemed(address indexed investor, uint256 amount);\n    \n    // Constructor to initialize the contract\n    constructor(\n        string memory name,\n        string memory symbol,\n        address _usdt,\n        uint256 _debtAmount,\n        uint256 _interestRate,\n        uint256 _duration\n    ) ERC20(name, symbol) {\n        // Validating input parameters\n        require(_debtAmount > 0, \"Debt amount must be greater than zero\");\n        require(_interestRate > 0, \"Interest rate must be greater than zero\");\n        require(_duration > 0, \"Duration must be greater than zero\");\n\n        usdt = IERC20(_usdt);\n        interestRate = _interestRate;\n        duration = _duration;\n        endTimestamp = block.timestamp + _duration;\n\n        // Mint initial supply of tokens to the contract\n        _mint(address(this), _debtAmount / tokenPrice);\n    }\n\n    // Function to buy tokens\n    function buyTokens(uint256 amount) public nonReentrant {\n        require(amount > 0, \"Amount must be greater than zero\");\n        \n        uint256 cost = amount * tokenPrice;\n        require(usdt.balanceOf(msg.sender) >= cost, \"Insufficient USDT balance\");\n        require(usdt.allowance(msg.sender, address(this)) >= cost, \"Insufficient allowance\");\n        // Obtencion del numero de tokens ERC-20 disponibles\n        uint256 balance = getBalance(address(this));\n        require(amount <= balance, \"Buy a smaller number of tokens\");\n\n        usdt.safeTransferFrom(msg.sender, address(this), cost);\n        _transfer(address(this), msg.sender, amount);\n        \n        if (!isInvestor[msg.sender]) {\n            investors.push(msg.sender);\n            isInvestor[msg.sender] = true;\n            lastClaimedTime[msg.sender] = block.timestamp;\n        }\n\n        emit TokensPurchased(msg.sender, amount);\n    }\n\n    // Function to claim interest\n    function claimInterest() public nonReentrant {\n        uint256 interest = calculateInterest(msg.sender);\n        require(interest > 0, \"No interest to claim\");\n        \n        lastClaimedTime[msg.sender] = block.timestamp;\n        usdt.safeTransfer(msg.sender, interest);\n        emit InterestClaimed(msg.sender, interest);\n    }\n\n    // Function to calculate interest for an investor\n    function calculateInterest(address investor) public view returns (uint256) {\n        uint256 balance = balanceOf(investor);\n        uint256 timeElapsed = block.timestamp - lastClaimedTime[investor];\n        uint256 totalInterest = balance * interestRate / 100 * timeElapsed / duration;\n        return totalInterest;\n    }\n\n    // Function to redeem capital after the debt period is over\n    function redeemCapital() public nonReentrant {\n        require(block.timestamp >= endTimestamp, \"Contract period not over\");\n        \n        uint256 amount = balanceOf(msg.sender);\n        require(amount > 0, \"No tokens to redeem\");\n\n        _burn(msg.sender, amount);\n        usdt.safeTransfer(msg.sender, amount * tokenPrice);\n        emit CapitalRedeemed(msg.sender, amount);\n    }\n\n    // Function to get the balance of an account\n    function getBalance(address account) public view returns (uint256) {\n        return balanceOf(account);\n    }\n\n    // Function to get the balance of USDT in the contract\n    function getUSDTBalance() public view returns (uint256) {\n        return usdt.balanceOf(address(this)) / 10**6;\n    }\n\n    // Function to get the remaining time for the debt period\n    function remainingTime() public view returns (uint256) {\n        return endTimestamp - block.timestamp;\n    }\n\n\n}\n",
  "sourcePath": "/mnt/c/Users/usuario/Documents/Defi/src/contracts/PublicDebt.sol",
  "compiler": {
    "name": "solc",
    "version": "0.8.4+commit.c7e474f2.Emscripten.clang"
  },
  "schemaVersion": "3.4.16",
  "updatedAt": "2024-07-19T21:43:27.910Z",
  "networkType": "ethereum",
  "devdoc": {
    "kind": "dev",
    "methods": {
      "allowance(address,address)": {
        "details": "See {IERC20-allowance}."
      },
      "approve(address,uint256)": {
        "details": "See {IERC20-approve}. NOTE: If `amount` is the maximum `uint256`, the allowance is not updated on `transferFrom`. This is semantically equivalent to an infinite approval. Requirements: - `spender` cannot be the zero address."
      },
      "balanceOf(address)": {
        "details": "See {IERC20-balanceOf}."
      },
      "decimals()": {
        "details": "Returns the number of decimals used to get its user representation. For example, if `decimals` equals `2`, a balance of `505` tokens should be displayed to a user as `5.05` (`505 / 10 ** 2`). Tokens usually opt for a value of 18, imitating the relationship between Ether and Wei. This is the value {ERC20} uses, unless this function is overridden; NOTE: This information is only used for _display_ purposes: it in no way affects any of the arithmetic of the contract, including {IERC20-balanceOf} and {IERC20-transfer}."
      },
      "decreaseAllowance(address,uint256)": {
        "details": "Atomically decreases the allowance granted to `spender` by the caller. This is an alternative to {approve} that can be used as a mitigation for problems described in {IERC20-approve}. Emits an {Approval} event indicating the updated allowance. Requirements: - `spender` cannot be the zero address. - `spender` must have allowance for the caller of at least `subtractedValue`."
      },
      "increaseAllowance(address,uint256)": {
        "details": "Atomically increases the allowance granted to `spender` by the caller. This is an alternative to {approve} that can be used as a mitigation for problems described in {IERC20-approve}. Emits an {Approval} event indicating the updated allowance. Requirements: - `spender` cannot be the zero address."
      },
      "name()": {
        "details": "Returns the name of the token."
      },
      "owner()": {
        "details": "Returns the address of the current owner."
      },
      "renounceOwnership()": {
        "details": "Leaves the contract without owner. It will not be possible to call `onlyOwner` functions anymore. Can only be called by the current owner. NOTE: Renouncing ownership will leave the contract without an owner, thereby removing any functionality that is only available to the owner."
      },
      "symbol()": {
        "details": "Returns the symbol of the token, usually a shorter version of the name."
      },
      "totalSupply()": {
        "details": "See {IERC20-totalSupply}."
      },
      "transfer(address,uint256)": {
        "details": "See {IERC20-transfer}. Requirements: - `to` cannot be the zero address. - the caller must have a balance of at least `amount`."
      },
      "transferFrom(address,address,uint256)": {
        "details": "See {IERC20-transferFrom}. Emits an {Approval} event indicating the updated allowance. This is not required by the EIP. See the note at the beginning of {ERC20}. NOTE: Does not update the allowance if the current allowance is the maximum `uint256`. Requirements: - `from` and `to` cannot be the zero address. - `from` must have a balance of at least `amount`. - the caller must have allowance for ``from``'s tokens of at least `amount`."
      },
      "transferOwnership(address)": {
        "details": "Transfers ownership of the contract to a new account (`newOwner`). Can only be called by the current owner."
      }
    },
    "version": 1
  },
  "userdoc": {
    "kind": "user",
    "methods": {},
    "version": 1
  }
}